:100000000C9434000C943E000C943E000C943E0082
:100010000C943E000C943E000C943E000C943E0068
:100020000C943E000C943E000C943E000C943E0058
:100030000C943E000C943E000C943E000C943E0048
:100040000C943E000C943E000C943E000C943E0038
:100050000C943E000C943E000C943E000C943E0028
:100060000C943E000C943E0011241FBECFEFD8E04C
:10007000DEBFCDBF0E9440000C9470000C940000C5
:100080008FEF84B980E041E050E08730B8F0282F4E
:1000900030E0CA01022E01C0880F0A94EAF78BB93A
:1000A0008FEF93EC69E0815090406040E1F700C031
:1000B000000021503109822F2111EBCF9A01082E27
:1000C00001C0220F0A94EAF72BB92FEF33EC69E055
:1000D000215030406040E1F700C000008F5FD5CF75
:0400E000F894FFCFC2
:00000001FF
