:100000000C9434000C943E000C943E000C943E0082
:100010000C943E000C943E000C943E000C943E0068
:100020000C943E000C943E000C943E000C943E0058
:100030000C943E000C943E000C943E000C943E0048
:100040000C943E000C943E000C943E000C943E0038
:100050000C943E000C943E000C943E000C943E0028
:100060000C943E000C943E0011241FBECFEFD8E04C
:10007000DEBFCDBF0E9440000C94A4000C94000091
:100080008FEF8AB941E050E090E080E06BB19A01D7
:10009000082E01C0220F0A94EAF7362F322B3BB903
:1000A0006FE776E2E4E061507040E040E1F700C0C5
:1000B00000003BB10196BA01082E01C0660F0A94F8
:1000C000EAF7362B3BB96FEF7CE0E2E0615070401D
:1000D000E040E1F700C000003BB1209523232BB99D
:1000E0008730910599F66BB19A01082E01C0220F55
:1000F0000A94EAF7362F322B3BB96FE776E2E4E059
:1001000061507040E040E1F700C000003BB1BC012D
:1001100061507109CA01062E01C0880F0A94EAF7DE
:10012000932F982B9BB98FEF9CE0E2E08150904099
:10013000E040E1F700C000008BB1209528232BB9E7
:0C014000CB01009781F6A0CFF894FFCF10
:00000001FF
