:100000000C9434000C943E000C943E000C943E0082
:100010000C943E000C943E000C943E000C943E0068
:100020000C943E000C943E000C943E000C943E0058
:100030000C943E000C943E000C943E000C943E0048
:100040000C943E000C943E000C943E000C943E0038
:100050000C943E000C943E000C943E000C943E0028
:100060000C943E000C943E0011241FBECFEFD8E04C
:10007000DEBFCDBF0E9440000C9466000C940000CF
:100080008FEF8AB924E332E1E5E0F8E061E070E067
:100090002E9FC0012F9F900D3E9F900D11249C011B
:1000A000275E394C8BB1932F9770AB0101C0440F81
:1000B0009A95EAF784278BB94FEF81EE94E041508F
:1000C00080409040E1F700C00000E2CFF894FFCFFD
:00000001FF
