:100000000C9434000C943E000C943E000C943E0082
:100010000C943E000C943E000C943E000C943E0068
:100020000C943E000C943E000C943E000C943E0058
:100030000C943E000C943E000C943E000C943E0048
:100040000C943E000C943E000C943E000C943E0038
:100050000C943E000C943E000C943E000C943E0028
:100060000C943E000C943E0011241FBECFEFD8E04C
:10007000DEBFCDBF0E9440000C94BB000C9400007A
:100080008FEF8AB9FEE0E6E17EE466EC5AEA45E5E8
:1000900033E32CEC9DE682E9FBB9AFEFB1EEC4E0AF
:1000A000A150B040C040E1F700C00000EBB9AFEF95
:1000B000B1EEC4E0A150B040C040E1F700C0000084
:1000C0007BB9AFEFB1EEC4E0A150B040C040E1F762
:1000D00000C000006BB9AFEFB1EEC4E0A150B0407A
:1000E000C040E1F700C000005BB9AFEFB1EEC4E083
:1000F000A150B040C040E1F700C000004BB9AFEFE5
:10010000B1EEC4E0A150B040C040E1F700C0000033
:100110003BB9AFEFB1EEC4E0A150B040C040E1F751
:1001200000C000002BB9AFEFB1EEC4E0A150B04069
:10013000C040E1F700C000009BB9AFEFB1EEC4E0F2
:10014000A150B040C040E1F700C000008BB9AFEF54
:10015000B1EEC4E0A150B040C040E1F700C00000E3
:100160001BB8AFEFB3EDC0E3A150B040C040E1F722
:0A01700000C0000091CFF894FFCF0B
:00000001FF
