:100000000C9434000C9449000C9449000C94490061
:100010000C9449000C9449000C9449000C9449003C
:100020000C9449000C9449000C9449000C9449002C
:100030000C9449000C9449000C9449000C9449001C
:100040000C9449000C9449000C9449000C9449000C
:100050000C9449000C9449000C9449000C944900FC
:100060000C9449000C94490011241FBECFEFD8E036
:10007000DEBFCDBF11E0A0E0B1E0E0E3F1E002C0FF
:1000800005900D92A031B107D9F70E944B000C9456
:1000900096000C94000080EC8AB98FE384B90E942A
:1000A000640080E091E00E9483000E947C00C82FE1
:1000B0000E9475008C2F8695869585B9C295CC0FC8
:1000C000CC0FC07CCBB9F1CF1092C50087E68093EE
:1000D000C400E0ECF0E080818D7F808388E1809334
:1000E000C10086E08093C20008959091C00095FF02
:1000F000FCCF8093C60008958091C00087FFFCCF9D
:100100008091C60008951F93CF93DF93EC0110E018
:10011000FE01E10FF11D8081811104C0DF91CF91BB
:100120001F9108950E9475001F5FF2CFF894FFCFD2
:1001300048656C6C6F20576F726C64210D0A00006B
:00000001FF
