:100000000C9434000C9449000C9449000C94490061
:100010000C9449000C9449000C9449000C9449003C
:100020000C9449000C9449000C9449000C9449002C
:100030000C9449000C9449000C9449000C9449001C
:100040000C9449000C9449000C9449000C9449000C
:100050000C9449000C9449000C9449000C944900FC
:100060000C9449000C94490011241FBECFEFD8E036
:10007000DEBFCDBF11E0A0E0B1E0E8E3F1E002C0F7
:1000800005900D92A631B107D9F70E948D000C940E
:100090009A000C9400002FEF83EC99E021508040EF
:1000A0009040E1F700C000002FEF83EC99E0215071
:1000B00080409040E1F700C000002FEF83EC99E012
:1000C000215080409040E1F700C000002FEF83EC0A
:1000D00099E0215080409040E1F700C000002FEFF0
:1000E00083EC99E0215080409040E1F700C000008F
:1000F0000895282FFC018E2F821B861710F00C9478
:100100004B0081918BB93FEF83EC99E031508040F7
:100110009040E1F700C00000EECF8FEF8AB96BE0AE
:100120008BE091E00E9479006BE080E091E00E941A
:080130007900F5CFF894FFCF30
:100138000E18BD763C3C3C76BD180E7018FDB63CDA
:060148003C3CB6FD1870FE
:00000001FF
