:100000000C9434000C943E000C943E000C943E0082
:100010000C943E000C943E000C943E000C943E0068
:100020000C943E000C943E000C943E000C943E0058
:100030000C943E000C943E000C943E000C943E0048
:100040000C943E000C943E000C943E000C943E0038
:100050000C943E000C943E000C943E000C943E0028
:100060000C943E000C943E0011241FBECFEFD8E04C
:10007000DEBFCDBF0E9440000C9453000C940000E2
:100080008FEF8AB983EC9CE31A990BC09BB92FEFD1
:1000900033EC49E0215030404040E1F700C000001F
:0A00A000F3CF8BB9F4CFF894FFCF33
:00000001FF
