:100000000C9434000C943E000C943E000C943E0082
:100010000C943E000C943E000C943E000C943E0068
:100020000C943E000C943E000C943E000C943E0058
:100030000C943E000C943E000C943E000C943E0048
:100040000C943E000C943E000C943E000C943E0038
:100050000C943E000C943E000C943E000C943E0028
:100060000C943E000C943E0011241FBECFEFD8E04C
:10007000DEBFCDBF0E9440000C9471000C940000C4
:100080008FEF8AB98BE790E09C0143E03695279586
:100090004A95E1F7AC01452F552742954F7024272B
:1000A0003527AC0144E0549F412D552711242427C6
:1000B000352721703327AC014427550F441F55279E
:1000C00024273527880F991F822B932B9BB92FEF5D
:1000D00031EE44E0215030404040E1F700C00000E4
:0600E000D3CFF894FFCF1E
:00000001FF
